:020000040000FA
:0600000047EF0DF01200B5
:0608000047EF0DF01200AD
:06082A000100C41A0000E9
:0808300022010000030000009A
:080838006C500CE1689604010C
:1008400000513C0BE842E8420D0802E10ED801D00D
:1008500046D808D0040E6C5C03E1689650D802D0EC
:10086000000E02D0010E00D01200D9CFE6FFE1CF7A
:10087000D9FFE652040104BF046B01011E6B166B25
:10088000176B1C6B1D6BACEC07F0DF6ADF50106E52
:10089000116A010E105C000E11581BE20101175184
:1008A00001E017D0F76ADF34FE0BF736F66EB10EB3
:1008B000F626180EF7220900F5CF10F00800F5CF44
:1008C00011F004D011C0FAFF1050F96EFBDFDF2ADF
:1008D000DDD7EED8E552E552E7CFD9FF1200020E80
:1008E0000101165D0AE1A7D8040100BD03D0C80EBE
:1008F000006F02D0880E006F01D020D91200040EC4
:100900000001FC5D0AE122C46EFF6E50000803E2A4
:10091000050EFC6F02D0030EFC6F0101160512E1FB
:1009200013D8020E01011E5D04E10401840E046F60
:1009300008D0040104BD03D0C80E046F02D0880E95
:10094000046F01D0FBD81200D9CFE6FFE1CFD9FF69
:10095000020EE1260101080E1C5D000E1D590EE27B
:100960001CC1DEFF1DC1DDFF1E5103E1010E1E6F24
:1009700004D01E0502E1020E1E6F03D0080EDE6ECB
:10098000DD6A040104930491010EDB500413DFCFF0
:1009900005F4000EDB5001011C5F010EDB501D5BF6
:1009A000280E1A6F040E1B6F0001FDA31ED0D9CFB5
:1009B000E9FFDACFEAFFEE50ED1016E018C1F6FFBE
:1009C00019C1F7FF0800F5501AC1E9FF1BC1EAFF82
:1009D000EF6E01011A2B000E1B23182B1923DF06C3
:1009E000010E01E2DB06E3D71CD0D9CFE9FFDACF55
:1009F000EAFFEE50ED1015E018C1E9FF19C1EAFF5A
:100A0000EF501AC1E9FF1BC1EAFFEF6E01011A2B7B
:100A1000000E1B23182B1923DF06010E01E2DB0653
:100A2000E4D7020EE15C02E2E16AE552E16EE552D2
:100A3000E7CFD9FF1200D9CFE6FFE1CFD9FF020EF1
:100A4000E126030E04010015E76E010EE7CFDBFF80
:100A500001C4DFFFDE5001011C27DD501D23280EDD
:100A6000186F040E196FD9CFE9FFDACFEAFFEE5005
:100A7000ED1014E018C1E9FF19C1EAFFEF501AC1E7
:100A8000E9FF1BC1EAFFEF6E1A2B000E1B23182B88
:100A90001923DF06010E01E2DB06E5D7020EE15C59
:100AA00002E2E16AE552E16EE552E7CFD9FF1200BA
:100AB0006D98010117510CE10401080E016F200E21
:100AC000026F040E036F840E006F0401046F35D0B3
:100AD000040120AF22D001011C510401265D010157
:100AE0001D510401275904E226C41CF127C41DF13D
:100AF0002BDF0101010E166F0401080E016F200E9D
:100B0000026F040E036F800E006F0401280E066F43
:100B1000040E076FC80E046F10D00101020E166F8D
:100B20000401056BC80E046F0401080E016F280E46
:100B3000026F040E036FC80E006F1200D9CFE6FFDC
:100B4000E1CFD9FFE652020E0101165D36E16D508C
:100B5000100B33E004010151106E116A080E1018D9
:100B600001E111502AE100513C0BE842E8420D0836
:100B700024E10051800B21E1200E026F040E036F6F
:100B8000DF6ADF50106E116A080E105C000E1158FB
:100B900013E2DF50EA6A280FE96E040EEA22EF50F2
:100BA000E66EDF50EA6A200FE96E040EEA22E55293
:100BB000E750EF6EDF2AE5D70DD00101166B040177
:100BC000080E016F200E026F040E036F8C0E006F73
:0E0BD0000401046BE552E552E7CFD9FF120095
:020BDE00040110
:100BE00020511F0B010801E05BD02051600BE8424F
:100BF000E842E842E842E842010801E051D02451CD
:100C000003E0240501E04CD02151230A48E0010A09
:100C100040E0030A30E0010A25E0240A22E0070A46
:100C20001FE0010A1CE0030A11E0010A01E038D0CC
:100C30000101030E176F0101F40E186F000E196FFA
:100C40000001FD930101080E1C6F2AD00101030E63
:100C5000176F0101F40E1A6F000E1B6F21D020D008
:100C60001FD01ED00101030E176F0101EC0E1A6F89
:100C7000000E1B6F15D00101030E176F0101EC0E62
:100C8000186F000E196F0001FD930101070E1C6F14
:100C900007D00101030E176F22C4F3F001D000D07A
:100CA00012000001EC6BC20EED6F010EEE6FEF6BE8
:100CB000F06BF16B080EF26FE56BE46B1A0E726E5F
:100CC0001E0E736E0401300E166F040E176F400E69
:100CD000146F0401196F380E1A6F040E1B6F880E03
:100CE000186F0401780E1E6F040E1F6F400E1C6FEC
:100CF0001200D9CFE6FFE1CFD9FF0001E46B040178
:100D000018BF30D0FC0EDBCF10F01951D880105432
:100D100003E2FC0E19C4DBFF0001E46BFC0EDB50A8
:100D2000E45D19E2E451EA6A380FE96E040EEA2242
:100D3000EF50E66EE451E76EFD0EDBCFE9FFFE0EED
:100D4000DBCFEAFFE750E926000EEA22E552E75042
:100D5000EF6EE42BE3D70401400E196F1817187DCE
:100D6000880E18130001E45100D0E552E7CFD9FFF7
:100D70001200D9CFE6FFE1CFD9FFE6520001E551DD
:100D800001E02FD0DF6ADF2ADF50106E116AFF0EFC
:100D9000101801E1115001E10BD0FD0EDBCFE9FF8E
:100DA000DB2AFE0EDBCFEAFF01E3DB2AEF50EBE1AB
:100DB000DF50106E116AD950FD0FE96EFF0EDA2078
:100DC000EA6E1050EE5E1150ED5AFD0EDBCFE6F0EC
:100DD000FE0EDBCFE7F0DFCFEAF00001EB6B010E98
:100DE000E56FE552E552E7CFD9FF1200D9CFE6FF14
:100DF000E1CFD9FFE6520001E55101E030D0DF6AD2
:100E0000DF2ADF50106E116AFF0E101801E1115039
:100E100001E10CD0FD0EDBCFF6FFDB2AFE0EDBCFAF
:100E2000F7FF01E3DB2A0800F550EAE1DF50106E1E
:100E3000116AD950FD0FE96EFF0EDA20EA6E1050EC
:100E4000EE5E1150ED5AFD0EDBCFE6F0FE0EDBCF6D
:100E5000E7F0DFCFEAF00001010EEB6FE56FE5523E
:100E6000E552E7CFD9FF1200D9CFE6FFE1CFD9FF96
:100E7000E65204011CBF6BD0030E0001E55D01E1E9
:100E8000E56BE55101E163D0020EE55D06E1040189
:100E90001D6B0001030EE56F54D0E50552E1400ED5
:100EA000106E116AEA51105C000E115803E2400EF8
:100EB000DF6E02D0EAC0DFFFDFCF1DF4DF50EA5D56
:100EC000EA6F780EE86F040EE96FEB0515E1DF506D
:100ED00012E0E6C0F6FFE7C0F7FF0800F550E8C0F3
:100EE000E9FFE9C0EAFFEF6EE82B000EE923E62BED
:100EF000E723DF06ECD713D0DF5011E0E6C0E9FFAF
:100F0000E7C0EAFFEF50E8C0E9FFE9C0EAFFEF6E93
:100F1000E82B000EE923E62BE723DF06EDD7EA51A5
:100F200010E104011D51106E116A400E101801E10C
:100F3000115004E10001020EE56F03D00001030E21
:100F4000E56F400E04011C171C7D880E1C13E55232
:080F5000E552E7CFD9FF1200C2
:080F580004012051600BE84286
:100F6000E842E842E842E842000901E055D0215158
:100F7000070A51E00B0A4FE0070A40E0010A2CE0A3
:100F80000B0A28E0020A26E0030A22E0080A12E01F
:100F9000010A0EE00F0A0AE0030A01E03CD0010159
:100FA000010E176F0001040EFC6F36D036D834D016
:100FB00090D832D00101010E176F0101FE0E186F9B
:100FC000000E196F0001FD930101010E1C6F24D06A
:100FD000A8D822D0F6D820D00101010E176F040145
:100FE00024510101186F196BFF0E1827000E1923E9
:100FF0000001FD930101010E1C6F0ED00101010ED5
:10100000176F04012451EA6AFF0FE96E000EEA220D
:1010100022C4EFFF01D000D01200800E0401205D39
:1010200057E12351030A34E0010A10E0030A01E00A
:101030004DD00101010E176F0101E60E186F170E5A
:10104000196F120E01011C6F1D6B40D00101010EC2
:10105000176F04012251F66EF76AD890F636F7360C
:10106000A70EF626180EF7220900F5CF18F10A0090
:10107000F5CF19F1020E0101F76A1825F66E195124
:10108000F7220900F5CF1CF10A00F5CF1DF11ED0A3
:101090000101010E176F04012251F66EF76AD89014
:1010A000F636F736AB0EF626180EF7220900F5CF06
:1010B00018F10A00F5CF19F118C1F6FF19C1F7FFB1
:1010C0000800F55001011C6F1D6B00D00001FD836D
:1010D00012000101010E176F0F0EE66E710EE66E23
:1010E0000F0EE66E0FEC0BF0E552E552E552010EE5
:1010F000E66EFF0EE66E000EE66E0FEC0BF0E552AC
:10110000E552E55222C4FEF00401225104E100013F
:10111000050EFC6F05D00001060EFC6F51EC06F0C9
:1011200012000401286B296B040120511F0B020AD5
:1011300016E0030A10E0010A01E035D00101010EBA
:10114000176F80A402D0040128810001FDA102D004
:101150000401288328D00101010E176F24D001015A
:10116000010E176F040124510F0B080DF350116A83
:10117000000F106E040E11222451800B01E0010EAD
:10118000040DF350010110241A6F000E11201B6F83
:101190001AC1E9FF1BC1EAFFEF50040B03E0040191
:1011A000010E286F00D0010117050AE10101280E88
:1011B000186F040E196F0001FD930101020E1C6FE0
:1011C00012000401220510E120511F0B00090CE15F
:1011D0000101010E176F030E0401215D03E10001FF
:1011E000FD8102D00001FD91040122513BE120511B
:1011F0001F0B020837E124510F0B000933E00101F6
:10120000010E176F040124510F0B080DF350116AE2
:10121000000F106E040E11222451800B01E0010E0C
:10122000040DF350010110241A6F000E11201B6FE2
:10123000030E0401215D07E1840E1AC1E9FF1BC101
:10124000EAFFEF6E0FD024AF07D0400E1AC1E9FFBE
:101250001BC1EAFFEF6E06D0880E1AC1E9FF1BC161
:06126000EAFFEF6E120030
:0A126600F00E8C1695169388938AFB
:101270008150100B01E0010E0001606F8150200BC6
:1012800001E0010E616F24EC0BF047EF09F0948E42
:10129000949C710EAF6E020EB06E240EAC6E900E6A
:1012A000AB6E080EB86E1200D9CFE6FFE1CFD9FFC2
:1012B000ACA2FED7FD0EDBCFE9FFFE0EDBCFEAFFCF
:1012C000EF50AD6EFD0EDBCFE9FFDB2AFE0EDBCF6C
:1012D000EAFF01E3DB2AEF50EBE1E552E7CFD9FF6C
:1012E000120067D8060E0001FC5D03E36D50020B8F
:1012F00001E006D006D840D840D840D840D840D8E1
:1013000012000101225106E19CD8000902E001010E
:10131000222B31D022050EE10001E5510AE1E70E52
:10132000E66E190EE66EF6EC06F0E552E5520101A6
:10133000222B21D0020E225D0EE10001E5510AE1CF
:101340006A0EE66E1A0EE66EF6EC06F0E552E5520F
:101350000101222B10D0030E225D0DE10001E551A9
:101360000AE1B80EE66E190EE66EF6EC06F0E552EE
:10137000E5520101222B120012001200120012008D
:101380000001E251E31111E137EC0BF048EC0BF0F6
:10139000020EE66E010EE66E87DFE552E5520001B1
:1013A000100EE26F270EE36F03D0E207000EE35B3F
:1013B000120001012351241104E1100E236F270EA6
:1013C000246F2307000E245B6DA20BD02351241140
:1013D00007E18C708C50010B02E08C8201D08C9262
:1013E0002FD00001FC5103E18C908C9229D0FC0598
:1013F00003E18C808C8224D0020EFC5D03E18C80A2
:101400008C921ED0030EFC5D03E18C908C8218D070
:10141000050EFC5D07E101012351241102E18C70EE
:101420008C920ED0060EFC5D0BE1010123512411BC
:1014300007E18C708C50010B02E08C9201D08C8201
:1014400012008150100B01E0010E0001605D09E007
:101450008150100B01E0010E606F81B802D0010EC7
:1014600002D0000E00D012008150200B01E0010ECE
:101470000001615D09E08150200B01E0010E616F08
:0E14800081BA02D0010E02D0000E00D0120080
:02148E0080A23A
:1014900003D06DA60FD802D06DB613D80001FC059D
:1014A00008E16DBA06D0686A696A69806988020EC7
:1014B000FC6F12006D6A696A6D860001010EFC6F97
:1014C00012006D6A696A0001FC6B120061EF0AF09C
:1014D0000001FC5101E145D06850040B04E0695063
:1014E000040B01E047D86DB23CD06850010B04E01A
:1014F0006950010B01E06BD86850100B04E0695093
:10150000100B01E02FD86850400B04E06950400BED
:1015100001E049D86850200B04E06950200B01E03D
:1015200044D86850020B04E06950020B01E04DD82A
:10153000030E0001FC5D01E214D001011F6B040EDB
:101540001F5D0FE26850080B0BE06950080B08E0C4
:101550001CEC04F0000901E1689601011F2BEFD794
:1015600000D01200698468986D82A19AA08A030055
:10157000A09A12006D92699468A402D06894FCD776
:1015800012000001FDA10ED06D926D840101080EC4
:10159000206F070E216F2007000E215B20512111C3
:1015A000FAE16D941200689C120070A00CD0800EBD
:1015B0000401005D07E1840E0401045D03E1040100
:1015C0008C0E006F7090689A12006A6A12006A6A44
:1015D000686A9F0E6B6E7B0E696E6E6A0F0EE66E0A
:1015E000710EE66E0F0EE66E1AD8E552E552E55220
:1015F000160E706E68A608D0689600000000000005
:10160000000000000000F6D76D989EEC05F0000188
:10161000FD910001FE6B0001030EFC6F1200D9CF9B
:10162000E6FFE1CFD9FFFD0EDBCFE9FFFE0EDBCFFA
:10163000EAFFFC0EDB5004E0EE6AFC0EDB06F9D795
:08164000E552E7CFD9FF1200CB
:081648008A849394E66A030E04
:10165000E66E020EE66EA9EC0CF0E552E552E5529C
:101660000101870E006F0C0E016F48EF0BF08A949A
:101670005CEC0DF00101016F5CEC0DF00101006FFD
:101680008A8400B502D0000E02D0010E00D01200F4
:10169000D9CFE6FFE1CFD9FF030EE12600C110F05C
:1016A00001C111F0D89011321032E804FBE110C0F2
:1016B000DEFF11C0DDFFD950010FE96EDACFEAFF7E
:1016C000EF50100B08E1010EDB9ADB9CDB9E010161
:1016D0002B0E026F16D0010EDB8ADB8CDB8E010134
:1016E0002D0E026FDECF10F0DDCF11F0FF0E101ABD
:1016F000111A10C0DEFF11C0DDFFDF2A010E01E369
:10170000DB2ADECF10F0DDCF11F00A0E1102F3CF8D
:1017100011F01002F3CF10F0F4501126040ED890FF
:1017200011321032E804FBE110C0DEFF11C0DDFF12
:10173000040EF36E020EF3CFDBFFDB50000833E242
:10174000DECF10F0DDCF11F00A0E0B6E0C6A10C068
:1017500006F011C007F01FEC0DF002C010F003C03E
:1017600011F00F0E10143009E66E020EDB50EA6A1B
:10177000020FE96E010EEA22E552E750EF6ED9CF73
:10178000E9FFDACFEAFF0A0E0B6E0C6AEECF06F025
:10179000EDCF07F01FEC0DF006C0EEFF07C0EDFF28
:1017A000020EDB06CAD7300E0101035D07E1200EF1
:1017B000036F300E045D02E1200E046F06C107F1D5
:1017C0002E0E066FF80E086F430E096F0D0E0A6F8E
:1017D0000B6B030EE15C02E2E16AE552E16EE55259
:0617E000E7CFD9FF120063
:0A17E6001201000202000008D804FE
:1017F0000A0001000102000109024300020100C0C9
:101800003209040000010202010005240010010455
:1018100024020205240600010524010001070582B7
:101820000308000209040100020A00000007050382
:10183000024000000705830240000004030904344D
:10184000034D006900630072006F00630068006967
:10185000007000200054006500630068006E006F97
:10186000006C006F0067007900200049006E006383
:10187000002E003403430044004300200052005374
:10188000002D00320033003200200045006D00754D
:10189000006C006100740069006F006E002000445D
:1018A0000065006D006F00F817F8173B183F1873BC
:0318B00018DE0B34
:0C18B4002A0EF66E080EF76E000EF86E9D
:1018C00001010900F550116F0900F550126F03E195
:1018D000116701D03DD00900F5500C6F0900F5509B
:1018E0000D6F0900F5500E6F09000900F550E96E03
:1018F0000900F550EA6E090009000900F5500F6F64
:101900000900F550106F09000900F6CF13F1F7CF69
:1019100014F1F8CF15F10CC1F6FF0DC1F7FF0EC1A0
:10192000F8FF01010F5302E1105307E00900F550E1
:10193000EE6E0F07F8E21007F9D713C1F6FF14C1D6
:10194000F7FF15C1F8FF01011107000E125BBFD7A9
:02195000120083
:0E195200D9CFE6FFDACFE6FFE1CFD9FFE2CF33
:10196000DAFF3F0EC716C66AFD0EDB50C612FB0E2D
:10197000DB50C712FC0EDB50030A09E0010A04E049
:10198000020A06E1C78C04D0C78CC68801D0C6887D
:10199000FD0EDB50050A03E0010A04E1928A9382FE
:1019A000C79E01D09392949E9380C68AE552E5CF5C
:0819B000DAFFE7CFD9FF1200B6
:0819B80046756C6C2D5370653F
:1019C000656420555342202D204344432052532D1B
:1019D00032333220456D756C6174696F6E204465D9
:1019E0006D6F0D0A0D0A001B5B324A005479706559
:1019F00020696E206120737472696E672068657259
:051A0000652E0D0A0037
:0A1A060005D812D871EC09F0FCD7E6
:101A100012000F0EC11292829284140E6F6E00019A
:101A2000FC6B0001FD6B0001FE6B33EF09F047EC2E
:0E1A30000AF06FBE02D068EC0AF034EF07F047
:021A3E00036A39
:101A4000026A100EE76ED890063607360236033665
:101A50000B50025C0C50035805E30B50025E0C5017
:0A1A6000035A062AE72EF0D7120001
:061A6A000D4D6963726F6F
:101A70006368697020546563686E6F6C6F67792066
:0D1A8000496E632E2C20323030370D0A00E5
:021A8E0013EE55
:101A900000F023EE00F0F86A0F9C5AEC0CF061ECB9
:0A1AA0000DF003EC0DF0FBD712006F
:061AAA0000EE00F00F0E3B
:081AB000EE6AEA62FDD71200A4
:081AB800C96AC7A0FED7C9509E
:021AC000120012
:021AC200120010
:031AC4000000001F
:020000040030CA
:0100000024DB
:010001000EF0
:010002003FBE
:010003001EDE
:010005008179
:010006008178
:010008000FE8
:01000900C036
:01000A000FE6
:01000B00A054
:01000C000FE4
:01000D0040B2
:00000001FF
