:020000040000FA
:0600000068EF08F0120099
:06002A000100FA100000C5
:08003000220F00000300000094
:0800380064500CE16296040122
:1000400000513C0BE842E8420D0802E10ED801D015
:1000500046D808D0040E645C03E1629650D802D002
:10006000000E02D0010E00D01200D9CFE6FFE1CF82
:10007000D9FFE652040104BF046B0F011E6B166B1F
:10008000176B1C6B1D6B03EC04F0DF6ADF50026E14
:10009000036A010E025C000E03581BE20F011751A8
:1000A00001E017D0F76ADF34FE0BF736F66EA70EC5
:1000B000F6260F0EF7220900F5CF02F00800F5CF63
:1000C00003F004D003C0FAFF0250F96EFBDFDF2A11
:1000D000DDD7F1D8E552E552E7CFD9FF1200020E85
:1000E0000F01165D0AE1AAD8040100BD03D0C80EB5
:1000F000006F02D0880E006F01D023D91200040EC9
:100100000001FC5D0DE122C45EFF0F015E5100089D
:1001100004E20001050EFC6F03D00001030EFC6F2A
:100120000F01160512E113D8020E0F011E5D04E146
:100130000401840E046F08D0040104BD03D0C80E6E
:10014000046F02D0880E046F01D0FBD81200D9CF03
:10015000E6FFE1CFD9FF020EE1260F01080E1C5D7C
:10016000000E1D590EE21CCFDEFF1DCFDDFF1E511C
:1001700003E1010E1E6F04D01E0502E1020E1E6F88
:1001800003D0080EDE6EDD6A040104930491010EB3
:10019000DB500413DFCF05F4000EDB500F011C5FB2
:1001A000010EDB501D5B280E1A6F040E1B6F000141
:1001B000FDA31ED0D9CFE9FFDACFEAFFEE50ED1054
:1001C00016E018CFF6FF19CFF7FF0800F5501ACF49
:1001D000E9FF1BCFEAFFEF6E0F011A2B000E1B2366
:1001E000182B1923DF06010E01E2DB06E3D71CD032
:1001F000D9CFE9FFDACFEAFFEE50ED1015E018CFC6
:10020000E9FF19CFEAFFEF501ACFE9FF1BCFEAFF52
:10021000EF6E0F011A2B000E1B23182B1923DF067C
:10022000010E01E2DB06E4D7020EE15C02E2E16AC4
:10023000E552E16EE552E7CFD9FF1200D9CFE6FFD4
:10024000E1CFD9FF020EE126030E04010015E76E8F
:10025000010EE7CFDBFF01C4DFFFDE500F011C27DB
:10026000DD501D23280E186F040E196FD9CFE9FF3A
:10027000DACFEAFFEE50ED1014E018CFE9FF19CF06
:10028000EAFFEF501ACFE9FF1BCFEAFFEF6E1A2B00
:10029000000E1B23182B1923DF06010E01E2DB06DB
:1002A000E5D7020EE15C02E2E16AE552E16EE55259
:1002B000E7CFD9FF120065980F0117510CE1040137
:1002C000080E016F200E026F040E036F840E006F84
:1002D0000401046F35D0040120AF22D00F011C515E
:1002E0000401265D0F011D510401275904E226C4B3
:1002F0001CFF27C41DFF2BDF0F01010E166F040129
:10030000080E016F200E026F040E036F800E006F47
:100310000401280E066F040E076FC80E046F10D07C
:100320000F01020E166F0401056BC80E046F040165
:10033000080E016F280E026F040E036FC80E006FC7
:100340001200D9CFE6FFE1CFD9FFE652020E0F012E
:10035000165D36E16550100B33E004010151026E69
:10036000036A080E021801E103502AE100513C0B18
:10037000E842E8420D0824E10051800B21E1200E03
:10038000026F040E036FDF6ADF50026E036A080E0D
:10039000025C000E035813E2DF50EA6A280FE96E90
:1003A000040EEA22EF50E66EDF50EA6A200FE96E93
:1003B000040EEA22E552E750EF6EDF2AE5D70DD0B2
:1003C0000F01166B0401080E016F200E026F040E60
:1003D000036F8C0E006F0401046BE552E552E7CF0A
:0403E000D9FF12002F
:0C03E400040120511F0B010801E05BD058
:1003F0002051600BE842E842E842E842E842010846
:1004000001E051D0245103E0240501E04CD02151FA
:10041000230A48E0010A40E0030A30E0010A25E02F
:10042000240A22E0070A1FE0010A1CE0030A11E087
:10043000010A01E038D00F01030E176F0F01F40E0F
:10044000186F000E196F0001FD930F01080E1C6F4D
:100450002AD00F01030E176F0F01F40E1A6F000E52
:100460001B6F21D020D01FD01ED00F01030E176F9D
:100470000F01EC0E1A6F000E1B6F15D00F01030E4B
:10048000176F0F01EC0E186F000E196F0001FD932E
:100490000F01070E1C6F07D00F01030E176F22C448
:1004A000F3F001D000D012000001EC6BC20EED6F32
:1004B000010EEE6FEF6BF06BF16B080EF26FE56BF8
:1004C000E46B0F011A0E4E6F1E0E4F6F0401300EBB
:1004D000166F040E176F400E146F0401196F380E5B
:1004E0001A6F040E1B6F880E186F0401780E1E6FB2
:1004F000040E1F6F400E1C6F1200D9CFE6FFE1CF34
:10050000D9FF0001E46B040118BF30D0FC0EDBCF33
:1005100002F01951D880025403E2FC0E19C4DBFF2B
:100520000001E46BFC0EDB50E45D19E2E451EA6A81
:10053000380FE96E040EEA22EF50E66EE451E76EE2
:10054000FD0EDBCFE9FFFE0EDBCFEAFFE750E92629
:10055000000EEA22E552E750EF6EE42BE3D70401E8
:10056000400E196F1817187D880E18130001E451FA
:1005700000D0E552E7CFD9FF1200D9CFE6FFE1CF97
:10058000D9FFE6520001E55101E02FD0DF6ADF2AF2
:10059000DF50026E036AFF0E021801E1035001E111
:1005A0000BD0FD0EDBCFE9FFDB2AFE0EDBCFEAFF2F
:1005B00001E3DB2AEF50EBE1DF50026E036AD95012
:1005C000FD0FE96EFF0EDA20EA6E0250EE5E035078
:1005D000ED5AFD0EDBCFE6F0FE0EDBCFE7F0DFCF0E
:1005E000EAF00001EB6B010EE56FE552E552E7CF53
:1005F000D9FF1200D9CFE6FFE1CFD9FFE6520001C3
:10060000E55101E030D0DF6ADF2ADF50026E036A75
:10061000FF0E021801E1035001E10CD0FD0EDBCF0B
:10062000F6FFDB2AFE0EDBCFF7FF01E3DB2A080033
:10063000F550EAE1DF50026E036AD950FD0FE96E12
:10064000FF0EDA20EA6E0250EE5E0350ED5AFD0E08
:10065000DBCFE6F0FE0EDBCFE7F0DFCFEAF0000104
:10066000010EEB6FE56FE552E552E7CFD9FF1200BF
:10067000D9CFE6FFE1CFD9FFE65204011CBF6BD012
:10068000030E0001E55D01E1E56BE55101E163D099
:10069000020EE55D06E104011D6B0001030EE56F2E
:1006A00054D0E50552E1400E026E036AEA51025C45
:1006B000000E035803E2400EDF6E02D0EAC0DFFFF7
:1006C000DFCF1DF4DF50EA5DEA6F780EE86F040EAD
:1006D000E96FEB0515E1DF5012E0E6C0F6FFE7C079
:1006E000F7FF0800F550E8C0E9FFE9C0EAFFEF6E48
:1006F000E82B000EE923E62BE723DF06ECD713D027
:10070000DF5011E0E6C0E9FFE7C0EAFFEF50E8C0C4
:10071000E9FFE9C0EAFFEF6EE82B000EE923E62BC4
:10072000E723DF06EDD7EA5110E104011D51026E07
:10073000036A400E021801E1035004E10001020EB9
:10074000E56F03D00001030EE56F400E04011C1796
:100750001C7D880E1C13E552E552E7CFD9FF12002D
:100760002A0EF66E000EF76E000EF86E0F010900ED
:10077000F550116F0900F550126F03E1116701D0B8
:100780003DD00900F5500C6F0900F5500D6F0900C0
:10079000F5500E6F09000900F550E96E0900F5509B
:1007A000EA6E090009000900F5500F6F0900F550C5
:1007B000106F09000900F6CF13FFF7CF14FFF8CF31
:1007C00015FF0CCFF6FF0DCFF7FF0ECFF8FF0F018F
:1007D0000F5302E1105307E00900F550EE6E0F07CA
:1007E000F8E21007F9D713CFF6FF14CFF7FF15CFB4
:0E07F000F8FF0F011107000E125BBFD71200B9
:0207FE001200E7
:0608000068EF08F0120091
:0A08060004012051600BE842E842B3
:10081000E842E842E842000901E055D02151070AC8
:1008200051E00B0A4FE0070A40E0010A2CE00B0AF6
:1008300028E0020A26E0030A22E0080A12E0010A80
:100840000EE00F0A0AE0030A01E03CD00F01010E9E
:10085000176F0001040EFC6F36D036D834D090D814
:1008600032D00F01010E176F0F01FE0E186F000E30
:10087000196F0001FD930F01010E1C6F24D0A8D841
:1008800022D0F5D820D00F01010E176F040124519A
:100890000F01186F196BFF0E1827000E19230001A6
:1008A000FD930F01010E1C6F0ED00F01010E176F8B
:1008B00004012451EA6AFF0FE96E000EEA2222C405
:1008C000EFFF01D000D01200800E0401205D57E13F
:1008D0002351030A34E0010A10E0030A01E04DD07D
:1008E0000F01010E176F0F01DC0E186F0E0E196F3E
:1008F000120E0F011C6F1D6B40D00F01010E176F00
:1009000004012251F66EF76AD890F636F7369D0E3E
:10091000F6260F0EF7220900F5CF18FF0A00F5CFD3
:1009200019FF020E0F01F76A1825F66E1951F7220A
:100930000900F5CF1CFF0A00F5CF1DFF1ED00F01E7
:10094000010E176F04012251F66EF76AD890F63641
:10095000F736A10EF6260F0EF7220900F5CF18FF85
:100960000A00F5CF19FF18CFF6FF19CFF7FF0800DF
:10097000F5500F011C6F1D6B00D00001FD831200AC
:100980000F01010E176F0F0EE66E4D0EE66E0F0E85
:10099000E66E59EC07F0E552E552E552010EE66EBF
:1009A000FF0EE66E000EE66E59EC07F0E552E552DA
:1009B000E55222C4FEF00401225104E10001050EBB
:1009C000FC6F05D00001060EFC6F54EC02F0120023
:1009D0000401286B296B040120511F0B020A15E04A
:1009E000030A0FE0010A01E034D00F01010E176F76
:1009F00002D0040128810001FDA102D00401288356
:100A000028D00F01010E176F24D00F01010E176FB0
:100A1000040124510F0B080DF350036A000F026EFE
:100A2000040E03222451800B01E0010E040DF3504B
:100A30000F0102241A6F000E03201B6F1ACFE9FF6B
:100A40001BCFEAFFEF50040B03E00401010E286FF7
:100A500000D00F0117050AE10F01280E186F040ED0
:100A6000196F0001FD930F01020E1C6F12000401AB
:100A7000220510E120511F0B00090CE10F01010EAE
:100A8000176F030E0401215D03E10001FD8102D017
:100A90000001FD91040122513BE120511F0B02088E
:100AA00037E124510F0B000933E00F01010E176FDE
:100AB000040124510F0B080DF350036A000F026E5E
:100AC000040E03222451800B01E0010E040DF350AB
:100AD0000F0102241A6F000E03201B6F030E040186
:100AE000215D07E1840E1ACFE9FF1BCFEAFFEF6E0D
:100AF0000FD024AF07D0400E1ACFE9FF1BCFEAFF7B
:100B0000EF6E06D0880E1ACFE9FF1BCFEAFFEF6E1B
:020B10001200D1
:0E0B1200FC0E8D16961693888150100B01E094
:100B2000010E0001606F95EF05F0948E949C710E9C
:100B3000B06E020E7F6E240EAD6E900EAC6E080E7F
:100B40007E6E1200D9CFE6FFE1CFD9FFADA2FED76E
:100B5000FD0EDBCFE9FFFE0EDBCFEAFFEF50AE6EFE
:100B6000FD0EDBCFE9FFDB2AFE0EDBCFEAFF01E360
:100B7000DB2AEF50EBE1E552E7CFD9FF120065D851
:100B8000060E0001FC5D03E36550020B01E006D098
:100B900006D840D840D840D840D840D812000F01DD
:100BA000225106E19AD8000902E00F01222B31D030
:100BB00022050EE10001E5510AE1570EE66E100E26
:100BC000E66EFAEC02F0E552E5520F01222B21D03D
:100BD000020E225D0EE10001E5510AE1AC0EE66E67
:100BE000100EE66EFAEC02F0E552E5520F01222BF0
:100BF00010D0030E225D0DE10001E5510AE1280E3F
:100C0000E66E100EE66EFAEC02F0E552E5520F01C8
:100C1000222B120012001200120012000001E251F9
:100C2000E3110FE13BEC08F0020EE66E0F0EE66EEC
:100C300089DFE552E5520001100EE26F270EE36FE7
:100C400003D0E207000EE35B12000F0123512411D1
:100C500004E1100E236F270E246F2307000E245B80
:100C600065A20BD02351241107E18D728D50020B28
:100C700002E08D8001D08D902FD00001FC5103E166
:100C80008D928D9029D0FC0503E18D828D8024D03A
:100C9000020EFC5D03E18D828D901ED0030EFC5D83
:100CA00003E18D928D8018D0050EFC5D07E10F01E8
:100CB0002351241102E18D728D900ED0060EFC5D41
:100CC0000BE10F012351241107E18D728D50020BAE
:100CD00002E08D9001D08D8012008150100B01E058
:100CE000010E0001605D09E08150100B01E0010E72
:100CF000606F81B802D0010E02D0000E00D0120049
:100D000065A611D802D065B616D80001FC050AE127
:100D100065BA08D0626A0F015C6B5C815C89000176
:100D2000020EFC6F1200656A0F015C6B65860001A4
:100D3000010EFC6F1200656A0F015C6B0001FC6B19
:100D400012009BEF06F00001FC5101E14CD0625013
:100D5000040B05E00F015C51040B01E04ED865B2B5
:100D600042D06250010B05E00F015C51010B01E024
:100D700074D86250100B05E00F015C51100B01E0BC
:100D800033D86250400B05E00F015C51400B01E08D
:100D90004ED86250200B05E00F015C51200B01E0A2
:100DA00048D86250020B05E00F015C51020B01E0D4
:100DB00052D8030E0001FC5D01E215D00F011F6B3C
:100DC000040E1F5D10E26250080B0CE00F015C5135
:100DD000080B08E01CEC00F0000901E162960F012D
:100DE0001F2BEED700D012000F015C856298658240
:100DF000A198A0880300A098120065920F015C954D
:100E000062A402D06294FCD712000001FDA10ED0B2
:100E1000659265840F01080E206F070E216F200771
:100E2000000E215B20512111FAE165941200629CB1
:100E300012000F014CA10DD0800E0401005D07E1EE
:100E4000840E0401045D03E104018C0E006F0F01A8
:100E50004C91629A1200636A1200636A626A0F011F
:100E60009F0E5D6F0F017B0E5C6F0F015E6B0F0EAF
:100E7000E66E4D0EE66E0F0EE66E1BD8E552E5529D
:100E8000E5520F01160E4C6F62A608D06296000064
:100E900000000000000000000000F6D76598A1ECFB
:100EA00001F00001FD910001FE6B0001030EFC6FDB
:100EB0001200D9CFE6FFE1CFD9FFFD0EDBCFE9FF6E
:100EC000FE0EDBCFEAFFFC0EDB5004E0EE6AFC0E08
:0C0ED000DB06F9D7E552E7CFD9FF12008E
:040EDC0012010002FD
:100EE00002000008D8040A00010001020001090202
:100EF0004300020100C032090400000102020100A7
:100F00000524001001042402020524060001052422
:100F10000100010705820308000209040100020A1A
:100F2000000000070503024000000705830240009F
:100F3000000403090434034D006900630072006F6C
:100F400000630068006900700020005400650063C1
:100F50000068006E006F006C006F00670079002071
:100F60000049006E0063002E003403430044004338
:100F7000002000520053002D0032003300320020C8
:100F80000045006D0075006C006100740069006F21
:100F9000006E002000440065006D006F00EE0EEE54
:090FA0000E310F350F690FE40357
:060FAA0005D834D8BFECAD
:100FB00005F0FCD71200D9CFE6FFE1CFD9FF020E32
:100FC000E126580EDE6E020EDD6E9B8CDFCF02F046
:100FD000DF06010EDBCF03F001E2DB060250031057
:100FE00001E0F4D7C088C168C268C0980F01140E30
:100FF0005F6F0001FC6B0001FD6B0001FE6B89EC73
:1010000005F0020EE15C02E2E16AE552E16EE552B2
:10101000E7CFD9FF120080EC06F00F015FBF02D0CE
:08102000A3EC06F038EF03F029
:0810280046756C6C2D537065D8
:10103000656420555342202D204344432052532DB4
:1010400032333220456D756C6174696F6E20446572
:101050006D6F0D0A0D0A001B5B324A0054797065F2
:1010600020696E206120737472696E6720686572F2
:05107000652E0D0A00D1
:0A1076000F012B0E026F200E036F16
:10108000320E046F350E056F2E0E066F310E075DA2
:1010900003E1320E076F02D0310E076FF80E086FB2
:0C10A000430E096F0D0E0A6F0B6B12005F
:0410AC000D4D69631A
:1010B000726F6368697020546563686E6F6C6F67E8
:0F10C0007920496E632E2C20323030370D0A0014
:1010D0001EEE00F02EEE00F0F86A019CB0EC03F07A
:0C10E000FFEC03F0D5EC07F0FBD712008A
:0410EC0000EE00F022
:0A10F0000F0EEE6AEA62FDD712004F
:0310FA00000000F3
:020000040001F9
:01FFF800AA5E
:01FFF900F710
:01FFFA000501
:01FFFB00FF06
:01FFFD00F70C
:00000001FF
