:020000040000FA
:060000008DEF09F0120073
:02002A000000D4
:04002C006C500CE127
:100030006896040100513C0BE842E8420D0802E1D9
:100040000ED801D046D808D0040E6C5C03E1689647
:1000500050D802D0000E02D0010E00D01200D9CF2D
:10006000E6FFE1CFD9FFE652040104BF046B0101B2
:100070001E6B166B176B1C6B1D6BA6EC03F0DF6A17
:10008000DF50106E116A010E105C000E11581BE259
:100090000101175101E017D0F76ADF34FE0BF73684
:1000A000F66EED0EF626100EF7220900F5CF10F0D1
:1000B0000800F5CF11F004D011C0FAFF1050F96E0E
:1000C000FBDFDF2ADDD7EED8E552E552E7CFD9FFD7
:1000D0001200020E0101165D0AE1A7D8040100BD5D
:1000E00003D0C80E006F02D0880E006F01D020D957
:1000F0001200040E0001FA5D0AE122C46EFF6E5088
:10010000000803E2050EFA6F02D0030EFA6F010138
:10011000160512E113D8020E01011E5D04E104016F
:10012000840E046F08D0040104BD03D0C80E046F10
:1001300002D0880E046F01D0FBD81200D9CFE6FFA1
:10014000E1CFD9FF020EE1260101080E1C5D000E71
:100150001D590EE21CC1DEFF1DC1DDFF1E5103E172
:10016000010E1E6F04D01E0502E1020E1E6F03D0A9
:10017000080EDE6EDD6A040104930491010EDB506B
:100180000413DFCF05F4000EDB5001011C5F010EEC
:10019000DB501D5B280E1A6F040E1B6F0001FBA3C2
:1001A0001ED0D9CFE9FFDACFEAFFEE50ED1016E00E
:1001B00018C1F6FF19C1F7FF0800F5501AC1E9FF91
:1001C0001BC1EAFFEF6E01011A2B000E1B23182B37
:1001D0001923DF06010E01E2DB06E3D71CD0D9CFDD
:1001E000E9FFDACFEAFFEE50ED1015E018C1E9FFA4
:1001F00019C1EAFFEF501AC1E9FF1BC1EAFFEF6E18
:1002000001011A2B000E1B23182B1923DF06010EE8
:1002100001E2DB06E4D7020EE15C02E2E16AE552AC
:10022000E16EE552E7CFD9FF1200D9CFE6FFE1CF6B
:10023000D9FF020EE126030E04010015E76E010E40
:10024000E7CFDBFF01C4DFFFDE5001011C27DD50DB
:100250001D23280E186F040E196FD9CFE9FFDACFCE
:10026000EAFFEE50ED1014E018C1E9FF19C1EAFFF2
:10027000EF501AC1E9FF1BC1EAFFEF6E1A2B000E07
:100280001B23182B1923DF06010E01E2DB06E5D73D
:10029000020EE15C02E2E16AE552E16EE552E7CF6F
:1002A000D9FF12006D98010117510CE10401080EED
:1002B000016F200E026F040E036F840E006F0401A5
:1002C000046F35D0040120AF22D001011C5104017C
:1002D000265D01011D510401275904E226C41CF1C9
:1002E00027C41DF12BDF0101010E166F0401080E5A
:1002F000016F200E026F040E036F800E006F040169
:10030000280E066F040E076FC80E046F10D001018F
:10031000020E166F0401056BC80E046F0401080E6F
:10032000016F280E026F040E036FC80E006F1200DB
:10033000D9CFE6FFE1CFD9FFE652020E0101165DEB
:1003400036E16D50100B33E004010151106E116A5B
:10035000080E101801E111502AE100513C0BE8424F
:10036000E8420D0824E10051800B21E1200E026FCC
:10037000040E036FDF6ADF50106E116A080E105C06
:10038000000E115813E2DF50EA6A280FE96E040EDE
:10039000EA22EF50E66EDF50EA6A200FE96E040EA3
:1003A000EA22E552E750EF6EDF2AE5D70DD00101D2
:1003B000166B0401080E016F200E026F040E036F0E
:1003C0008C0E006F0401046BE552E552E7CFD9FFB4
:0203D000120019
:0E03D200040120511F0B010801E05BD02051F7
:1003E000600BE842E842E842E842E842010801E0E6
:1003F00051D0245103E0240501E04CD02151230ABF
:1004000048E0010A40E0030A30E0010A25E0240A3E
:1004100022E0070A1FE0010A1CE0030A11E0010ABA
:1004200001E038D00101030E176F0101F20E186FC1
:10043000000E196F0001FB930101080E1C6F2AD0FA
:100440000101030E176F0101F20E1A6F000E1B6FF0
:1004500021D020D01FD01ED00101030E176F010143
:10046000EA0E1A6F000E1B6F15D00101030E176FF5
:100470000101EA0E186F000E196F0001FB930101D4
:10048000070E1C6F07D00101030E176F22C4F1F095
:1004900001D000D012000001EA6BC20EEB6F010E1A
:1004A000EC6FED6BEE6BEF6B080EF06FE36BE26BD6
:1004B0001A0E726E1E0E736E0401300E166F040E4D
:1004C000176F400E146F0401196F380E1A6F040E67
:1004D0001B6F880E186F0401780E1E6F040E1F6FBD
:1004E000400E1C6F1200D9CFE6FFE1CFD9FF00010B
:1004F000E26B040118BF30D0FC0EDBCF10F01951B5
:10050000D880105403E2FC0E19C4DBFF0001E26B3B
:10051000FC0EDB50E25D19E2E251EA6A380FE96E47
:10052000040EEA22EF50E66EE251E76EFD0EDBCFDD
:10053000E9FFFE0EDBCFEAFFE750E926000EEA22D4
:10054000E552E750EF6EE22BE3D70401400E196F3E
:100550001817187D880E18130001E25100D0E552DB
:10056000E7CFD9FF1200D9CFE6FFE1CFD9FFE6529E
:100570000001E35101E02FD0DF6ADF2ADF50106E67
:10058000116AFF0E101801E1115001E10BD0FD0EB0
:10059000DBCFE9FFDB2AFE0EDBCFEAFF01E3DB2A3C
:1005A000EF50EBE1DF50106E116AD950FD0FE96E8C
:1005B000FF0EDA20EA6E1050EE5E1150ED5AFD0E7D
:1005C000DBCFE4F0FE0EDBCFE5F0DFCFE8F000019B
:1005D000E96B010EE36FE552E552E7CFD9FF120058
:1005E000D9CFE6FFE1CFD9FFE6520001E35101E0A8
:1005F00030D0DF6ADF2ADF50106E116AFF0E10184C
:1006000001E1115001E10CD0FD0EDBCFF6FFDB2A3A
:10061000FE0EDBCFF7FF01E3DB2A0800F550EAE12D
:10062000DF50106E116AD950FD0FE96EFF0EDA200F
:10063000EA6E1050EE5E1150ED5AFD0EDBCFE4F085
:10064000FE0EDBCFE5F0DFCFE8F00001010EE96F31
:10065000E36FE552E552E7CFD9FF1200D9CFE6FFAD
:10066000E1CFD9FFE65204011CBF6BD0030E00019D
:10067000E35D01E1E36BE35101E163D0020EE35D71
:1006800006E104011D6B0001030EE36F54D0E30586
:1006900052E1400E106E116AE851105C000E1158C4
:1006A00003E2400EDF6E02D0E8C0DFFFDFCF1DF4B3
:1006B000DF50E85DE86F780EE66F040EE76FE9053E
:1006C00015E1DF5012E0E4C0F6FFE5C0F7FF0800D7
:1006D000F550E6C0E9FFE7C0EAFFEF6EE62B000E3B
:1006E000E723E42BE523DF06ECD713D0DF5011E03E
:1006F000E4C0E9FFE5C0EAFFEF50E6C0E9FFE7C06C
:10070000EAFFEF6EE62B000EE723E42BE523DF067E
:10071000EDD7E85110E104011D51106E116A400E31
:10072000101801E1115004E10001020EE36F03D043
:100730000001030EE36F400E04011C171C7D880EA0
:0C0740001C13E552E552E7CFD9FF120070
:04074C000401205133
:10075000600BE842E842E842E842E842000901E072
:1007600055D02151070A51E00B0A4FE0070A40E03B
:10077000010A2CE00B0A28E0020A26E0030A22E024
:10078000080A12E0010A0EE00F0A0AE0030A01E07B
:100790003CD00101010E176F0001040EFA6F36D034
:1007A00036D834D090D832D00101010E176F010134
:1007B000FC0E186F000E196F0001FB930101010E72
:1007C0001C6F24D0A8D822D0F4D820D00101010E6B
:1007D000176F040124510101186F196BFD0E1827C2
:1007E000000E19230001FB930101010E1C6F0ED0B6
:1007F0000101010E176F04012451EA6AFD0FE96E31
:10080000000EEA2222C4EFFF01D000D01200800EB9
:100810000401205D57E12351030A34E0010A10E08E
:10082000030A01E04DD00101010E176F0101220EF4
:10083000186F100E196F120E01011C6F1D6B40D046
:100840000101010E176F04012251F66EF76AD8906C
:10085000F636F736E30EF626100EF7220900F5CF2E
:1008600018F10A00F5CF19F1020E0101F76A1825F7
:10087000F66E1951F7220900F5CF1CF10A00F5CFE9
:100880001DF11ED00101010E176F04012251F66EF9
:10089000F76AD890F636F736E70EF626100EF722EE
:1008A0000900F5CF18F10A00F5CF19F118C1F6FFCC
:1008B00019C1F7FF0800F55001011C6F1D6B00D036
:1008C0000001FB8312000101010E176F0F0EE66E8F
:1008D000710EE66E0F0EE66E2DEC07F0E552E55256
:1008E000E552010EE66EFD0EE66E000EE66E2DEC94
:1008F00007F0E552E552E55222C4FCF00401225112
:1009000004E10001050EFA6F05D00001060EFA6F32
:100910004BEC02F012000401286B296B04012051FA
:100920001F0B020A14E0030A0EE0010A01E033D0B3
:100930000101010E176F040128810001FBA102D003
:100940000401288328D00101010E176F24D0010172
:10095000010E176F040124510F0B080DF350116A9B
:10096000000F106E040E11222451800B01E0010EC5
:10097000040DF350010110241A6F000E11201B6F9B
:100980001AC1E9FF1BC1EAFFEF50040B03E00401A9
:10099000010E286F00D0010117050AE10101280EA0
:1009A000186F040E196F0001FB930101020E1C6FFA
:1009B00012000401220510E120511F0B00090CE177
:1009C0000101010E176F030E0401215D03E1000117
:1009D000FB8102D00001FB91040122513BE1205137
:1009E0001F0B020837E124510F0B000933E001010E
:1009F000010E176F040124510F0B080DF350116AFB
:100A0000000F106E040E11222451800B01E0010E24
:100A1000040DF350010110241A6F000E11201B6FFA
:100A2000030E0401215D07E1840E1AC1E9FF1BC119
:100A3000EAFFEF6E0FD024AF07D0400E1AC1E9FFD6
:100A40001BC1EAFFEF6E06D0880E1AC1E9FF1BC179
:060A5000EAFFEF6E120048
:0A0A56008DEF09F012001F0EC51409
:100A600003E1C750040B02E0F9D7F8D71200D9CF41
:100A7000E6FFE1CFD9FFE652938293809382938081
:100A80009E96770EC86E800EC76EC56A280EC66E1B
:100A9000C950DF6EE552E552E7CFD9FF1200D9CF3A
:100AA000E6FFE1CFD9FFE652C950DF6EFE0EDB5004
:100AB000C96EC6AE03D0FF0E0BD00AD0C7B0FED7AA
:100AC000CDDFC5AC03D0FE0E03D002D0000E00D0A7
:100AD000E552E552E7CFD9FF1200D9CFE6FFE1CFCB
:100AE000D9FFE652C950DF6EC586C7A0FED7C950F0
:100AF00000D0E552E552E7CFD9FF1200D9CFE6FF8B
:100B0000E1CFD9FF020EE126DF6ADE52090EDD6E6B
:100B1000FB0EDB92DB94DB96DB98DB9ADB9CDB9EA7
:100B20009DDFC580C5B0FED7A60EE66EB8DFE552E4
:100B3000E76E010EE7CFDBFFC5BCDF6EFC0EDBCF3F
:100B400010F0FD0EDBCF11F011C010F0116A105043
:100B5000E66EA5DFE552E76E010EE7CFDBFFC5BC11
:100B6000DF6EFC0EDBCFE6FF9ADFE552E76E010E8B
:100B7000E7CFDBFFC5BCDF6EFE0EDBCFE6FF8FDF0E
:100B8000E552E76E010EE7CFDBFFC5BCDF6EC58423
:100B9000C5B4FED7A1A602D0010EDF6EDF50106EE5
:100BA000020EE15C03E200D0E16AE552E16E105012
:100BB000E552E7CFD9FF1200D9CFE6FFE1CFD9FF49
:100BC000020EE126DF6AFC0EDB92DB94DB96DB98FB
:100BD000DB9ADB9CDB9E42DFC580C5B0FED7A60E4C
:100BE000E66E5DDFE552C5AC02D0010EDF6EFD0E94
:100BF000DBCF10F0FE0EDBCF11F011C010F0116A48
:100C00001050E66E4CDFE552C5AC02D0010EDF6E2F
:100C1000FD0EDBCFE6FF43DFE552C5AC02D0010E8F
:100C2000DF6EC582C5B2FED7A70EE66E38DFE5528D
:100C3000C5AC02D0010EDF6E50DFE76E010EE7CFCC
:100C4000DBFFC584C5B4FED7A1A602D0010EDF6EBE
:100C5000010EDB50106E020EE15C03E200D0E16A8F
:100C6000E552E16E1050E552E7CFD9FF1200D9CF1F
:100C7000E6FFE1CFD9FFE65216D894909492829085
:100C80008292F5DEC584EADEE66A000EE66EE66A6A
:100C900093DFE552E552E552DF6EFFD7E552E552AC
:100CA000E7CFD9FF12000F0EC112140E6F6E0001B4
:100CB000FA6B0001FB6B0001FC6B78EF08F067EC4E
:0E0CC00006F06FBE02D086EC06F02EEF03F0B9
:020CCE006DA611
:100CD0000FD802D06DB613D80001FA0508E16DBA3D
:100CE00006D0686A696A69806988020EFA6F120024
:100CF0006D6A696A6D860001010EFA6F12006D6AF5
:100D0000696A0001FA6B12007FEF06F00001FA51E8
:100D100001E145D06850040B04E06950040B01E088
:100D200047D86DB23CD06850010B04E06950010B0C
:100D300001E06BD86850100B04E06950100B01E023
:100D40002FD86850400B04E06950400B01E049D8AF
:100D50006850200B04E06950200B01E044D8685033
:100D6000020B04E06950020B01E04DD8030E0001B4
:100D7000FA5D01E214D001011F6B040E1F5D0FE24A
:100D80006850080B0BE06950080B08E016EC00F007
:100D9000000901E1689601011F2BEFD700D0120076
:100DA000698468986D82A19AA08A0300A09A1200B3
:100DB0006D92699468A402D06894FCD71200000177
:100DC000FBA10ED06D926D840101080E206F070EFD
:100DD000216F2007000E215B20512111FAE16D9453
:100DE0001200689C120070A00CD0800E0401005DFF
:100DF00007E1840E0401045D03E104018C0E006F21
:100E00007090689A12006A6A12006A6A686A9F0E95
:100E10006B6E7B0E696E6E6A0F0EE66E710EE66E7D
:100E20000F0EE66E1AD8E552E552E552160E706EB8
:100E300068A608D0689600000000000000000000CE
:100E40000000F6D76D9898EC01F00001FB910001CD
:100E5000FC6B0001030EFA6F1200D9CFE6FFE1CF61
:100E6000D9FFFD0EDBCFE9FFFE0EDBCFEAFFFC0E64
:100E7000DB5004E0EE6AFC0EDB06F9D7E552E7CF63
:040E8000D9FF120084
:0C0E84008A849394E66A030EE66E020E68
:100E9000E66E1EEC09F0E552E552E5520101870EBF
:100EA000006F0C0E016F66EF07F08A94A2EC09F058
:100EB0000101016FA2EC09F00101006F8A8400B505
:100EC00002D0000E02D0010E00D01200D9CFE6FFF2
:100ED000E1CFD9FF030EE12600C110F001C111F0EE
:100EE000D89011321032E804FBE110C0DEFF11C0CF
:100EF000DDFFD950010FE96EDACFEAFFEF50100B9A
:100F000008E1010EDB9ADB9CDB9E01012B0E026FD8
:100F100016D0010EDB8ADB8CDB8E01012D0E026FF9
:100F2000DECF10F0DDCF11F0FF0E101A111A10C035
:100F3000DEFF11C0DDFFDF2A010E01E3DB2ADECF79
:100F400010F0DDCF11F00A0E1102F3CF11F01002F4
:100F5000F3CF10F0F4501126040ED8901132103255
:100F6000E804FBE110C0DEFF11C0DDFF040EF36EEC
:100F7000020EF3CFDBFFDB50000833E2DECF10F0D0
:100F8000DDCF11F00A0E0B6E0C6A10C006F011C016
:100F900007F077EC09F002C010F003C011F00F0E5B
:100FA00010143009E66E020EDB50EA6A020FE96E99
:100FB000010EEA22E552E750EF6ED9CFE9FFDACF12
:100FC000EAFF0A0E0B6E0C6AEECF06F0EDCF07F0CB
:100FD00077EC09F006C0EEFF07C0EDFF020EDB065E
:100FE000CAD7300E0101035D07E1200E036F300EFA
:100FF000045D02E1200E046F06C107F12E0E066F9C
:10100000F80E086F430E096F0D0E0A6F0B6B030E7F
:10101000E15C02E2E16AE552E16EE552E7CFD9FF19
:021020001200BC
:0E1022001201000202000008D8040A000100BA
:101030000102000109024300020100C0320904005C
:10104000000102020100052400100104240202052F
:10105000240600010524010001070582030800029F
:1010600009040100020A0000000705030240000015
:10107000070583024000000403090434034D00699E
:1010800000630072006F0063006800690070002058
:101090000054006500630068006E006F006C006F14
:1010A0000067007900200049006E0063002E0034C4
:1010B000034300440043002000520053002D00323F
:1010C0000033003200200045006D0075006C0061A7
:1010D00000740069006F006E002000440065006D20
:0F10E000006F003410341077107B10AF10D20364
:1010F00093848150040B01E0010E0001606F81EFC9
:1011000008F0948E949C710EAF6E020EB06E240E99
:10111000AC6E900EAB6E080EB86E1200D9CFE6FF23
:10112000E1CFD9FFACA2FED7FD0EDBCFE9FFFE0E6B
:10113000DBCFEAFFEF50AD6EFD0EDBCFE9FFDB2A20
:10114000FE0EDBCFEAFF01E3DB2AEF50EBE1E552D5
:10115000E7CFD9FF1200060E0001FA5D03E36D50E0
:10116000020B01E001D001D812001200120012009F
:1011700012001200120012008150040B01E0010E57
:101180000001605D09E08150040B01E0010E606F19
:0E11900081B402D0010E02D0000E00D0120079
:02119E002A0E17
:1011A000F66E000EF76E000EF86E01010900F550A4
:1011B000116F0900F550126F03E1116701D03DD0A6
:1011C0000900F5500C6F0900F5500D6F0900F5503E
:1011D0000E6F09000900F550E96E0900F550EA6E3E
:1011E000090009000900F5500F6F0900F550106F54
:1011F00009000900F6CF13F1F7CF14F1F8CF15F17C
:101200000CC1F6FF0DC1F7FF0EC1F8FF01010F532E
:1012100002E1105307E00900F550EE6E0F07F8E207
:101220001007F9D713C1F6FF14C1F7FF15C1F8FF76
:0C12300001011107000E125BBFD7120075
:04123C00D9CFE6FF21
:10124000DACFE6FFE1CFD9FFE2CFDAFF3F0EC716D4
:10125000C66AFD0EDB50C612FB0EDB50C712FC0E39
:10126000DB50030A09E0010A04E0020A06E1C78C28
:1012700004D0C78CC68801D0C688FD0EDB50050A95
:1012800003E0010A03E1928A938201D09392938052
:10129000949EC68AE552E5CFDAFFE7CFD9FF120068
:1012A00046756C6C2D537065656420555342202D36
:1012B000204344432052532D32333220456D756C08
:1012C0006174696F6E2044656D6F0D0A0D0A001B15
:1012D0005B324A005479706520696E206120737416
:0D12E00072696E6720686572652E0D0A0048
:0212EE00036A91
:1012F000026A100EE76ED8900636073602360336BD
:101300000B50025C0C50035805E30B50025E0C506E
:0A131000035A062AE72EF0D7120058
:06131A0013EE00F023EECB
:1013200000F0F86A0F9CCFEC08F0A7EC09F037EC5E
:0613300006F0FBD71200DD
:0A13360000EE00F00F0EEE6AEA620E
:04134000FDD71200C3
:0A134400C96AC7A0FED7C950120005
:02134E0012008B
:020000040030CA
:0100000020DF
:010001000EF0
:010002003FBE
:010003001EDE
:010005008179
:010006008178
:010008000FE8
:01000900C036
:01000A000FE6
:01000B00E014
:01000C000FE4
:01000D0040B2
:00000001FF
