:020000040000FA
:06000000DEEF0BF0120020
:06002A000100481800006F
:080030006A000000020000005C
:0800380058EC05F0FB0EDBCFD4
:10004000F3FFDB06F35000090AE0A6EC05F0FA0E18
:1000500011EC06F0F3E1151CF1E1010E01D0000EE8
:1000600087EF05F058EC05F03B0EE12402E3E16870
:10007000E652E16E010EDB6A020EDB6AF90EDBCF9F
:10008000F6FFFA0EDBCFF7FFFB0EDBCFF8FF080021
:10009000F550DF6EDF5002E1ABEF04F0250EDF5CC0
:1000A00002E09EEF04F0030EDB6A040EDB6A050E2D
:1000B000DB6A060EDB6A070EDB6AC0EC04F02D0E6D
:1000C000DF5C0CE02B0EDF5C09E0200EDF5C06E05D
:1000D000230EDF5C03E0300EDF5C1AE1DF50300AF4
:1000E00014E0130A0FE0030A0AE00B0A05E0060A0F
:1000F000E4E1030EDB80E1D7030EDB82DED7030EE3
:10010000DB84DBD7030EDB86D8D7030EDB88D5D79D
:100110002A0EDF5C1BE1BCEC04F00AEC05F010E0F9
:10012000030EDB8006680768130EDBCF0BF0140E9E
:10013000DBCF0CF04EEC08F0040E04C0DBFF03D064
:10014000130EF3EC04F0C0EC04F00BD0090EDB6AE4
:1001500061EC05F003E0D5EC05F0FAD7090EF3ECFD
:1001600004F0030EDBB0DB982E0EDF5C1BE1C0EC6D
:1001700004F02A0EDF5C0BE1BCEC04F00AEC05F0A5
:1001800003E1130E45EC05F0C0EC04F00BD0090EB2
:10019000DB6A61EC05F003E0D5EC05F0FAD7090E57
:1001A00045EC05F0680EDF5C07E1C0EC04F0680E7A
:1001B000DF5C1DE1030E18D0740EDF5C17E07A0ED1
:1001C000DF5C14E0480EDF5C06E0540EDF5C03E009
:1001D0005A0EDF5C02E1020E07D06C0EDF5C03E01A
:1001E0006A0EDF5C04E1010E98EC05F0C9DBDF501C
:1001F0006E0A01E17FD31E0A01E192D1200A01E1DA
:100200008FD13F0A01E149D11A0A01E146D10D0A15
:1002100001E143D1200A01E140D13A0A01E13DD197
:10022000200A01E13AD1260A01E135D10D0A01E1A6
:1002300032D11A0A01E1D9D0200A4AE0300A1FE07F
:10024000460A0EE0250A01E083D3D950F90FE96E82
:10025000FF0EDA20EA6E010EEE5E000EEE5AEE5A46
:10026000A6EC05F0250EE66E95DB03E1151C01E119
:1002700069D3A2EC05F001E26BD3DB2A69D3080E47
:10028000DB6A040EDB50010806E2040EDB046AECB4
:1002900005F0DB508BDB080EDB5009E0030EDB5072
:1002A000010B05E172DB01E04DD3080EDB6A64DB74
:1002B000EFCFDFFF1AEC06F003E1151C01E142D39A
:1002C000A2EC05F001E3DB2A60DB01E141D33AD384
:1002D000070EDB5002080FE1E6EC05F0030EADEC73
:1002E00005F00E0EEECFDBFF0F0EEECFDBFF100E94
:1002F000EECFDBFF20D0F70EDBCF17F0F80EDBCF11
:1003000018F0020E175E000E185AF70E17C0DBFF2A
:10031000F80E18C0DBFF17C0E9FF18C0EAFF9DEC1C
:1003200005F0166A0E0E14C0DBFF0F0E15C0DBFFC2
:10033000100E16C0DBFF0E0EDBCFE6FF0F0EDBCF7D
:10034000E6FF100EDBCFE6FF6CEC0BF0E552E5525A
:10035000E552130E05C0DBFF140E06C0DBFF060ED0
:10036000DB5005E0130EE1EC05F001E26ADB05EC81
:1003700006F002E2130E37DBC8EC05F006E0040ECF
:10038000E1EC05F002E2050E2EDB030EDBB005D03A
:10039000FCDA01E0D7D2080EDB6A090EDB6A0E0E2A
:1003A000DBCFF6FF0F0EDBCFF7FF100EDBCFF8FF32
:1003B0000800F550DF6EDF5014E00BEC06F011E2A0
:1003C0001AEC06F003E1151C01E1BCD2BBDB01E332
:1003D000DB2A090EDB2AD9500E0FE96E000ECBDBAB
:1003E000E7D7D3DA01E1B4D2ADD2C6DA110EEECF3F
:1003F000DBFF120EEDCFDBFF110EDBCFE6FF120E9F
:10040000DBCFE6FF5EEC0BF0E552E552130EF3CFC7
:10041000DBFF140EF4CFDBFF060EDB5004E0130EFF
:10042000D0DB01E20EDB05EC06F002E2130EDBDAB4
:10043000AFDB05E0040EC5DB02E2050ED4DA030EE5
:10044000DBB005D0A2DA01E07DD2080EDB6A090E2E
:10045000DB6A110EDBCFE9FF120EDBCFEAFFEFCF35
:10046000DFFFDF5014E0D7DB12E2E4DB03E1151C11
:1004700001E168D267DB01E3DB2A090EDB2A110EFA
:10048000DB2ADBCFE9FF120EE8E3DB2AE6D77DDAD1
:1004900001E15ED257D2030EDB8E070EDB0410E1C2
:1004A00095DB040E5ADB0A0EEECFDBFF0B0EEECF10
:1004B000DBFF0C0EEECFDBFF0D0EEECFDBFF6CD0C3
:1004C000070EDB5003082CE1030EDBAE0DD0B2DAD1
:1004D000020E76DAEFCF14F0156A166A176A14AEB8
:1004E00039D01568166835D0F70EDBCF15F0F80E49
:1004F000DBCF16F0020E155E000E165AF70E15C071
:10050000DBFFF80E16C0DBFF15C0E9FF16C0EAFFDF
:10051000EFCF14F00A0E14C0DBFF0B0EDB6A38D0ED
:10052000070EDB50020809E1030EDBAE04D059DBF5
:1005300016AE10D00ED055DB0DD0030EDBAE12D0B0
:1005400079DA020E3DDAF9DA166A176A15AE02D0C8
:1005500016681768E2DA0C0E16C0DBFF0D0E17C026
:10056000DBFF1AD0F70EDBCF16F0F80EDBCF17F05B
:10057000020E165E000E175AF70E16C0DBFFF80EBD
:1005800017C0DBFF16C0E9FF17C0EAFFD6DAC5DAED
:100590000C0EDB6A0D0EDB6A060EDB5005E1010E68
:1005A000F36E050EF3CFDBFF150EDB6A160EDB6A6A
:1005B000D950370F146E000EDA20156E390E14C0A4
:1005C000DBFF3A0E15C0DBFF380EDB6A080EDB6A74
:1005D0000A0EAEDADF50780A12E0200A10E0280A8C
:1005E0000CE0200A0AE03F0A06E00D0A02E0200AB9
:1005F00008E1020E05D0080E03D0080EDF26100E0B
:1006000097DA030EDBBE02D0DB92DB94DB50800B6B
:1006100024E08ADAD890030EEB50000A08E6000EB8
:10062000EE5C000EEE58000EEE58000EEE5815E28D
:1006300013DA09680A680B680C68F2EC0AF00A0E13
:1006400000C0DBFF0B0E01C0DBFF0C0E02C0DBFFA6
:100650000D0E03C0DBFF2D0E08D0030EDBA202D06F
:100660002B0E03D0DBA408D0200EF36E170EF3CFB1
:10067000DBFF150EDB2A02D0170EDB6A050EDB50FE
:1006800003E1B7D901E189D0170E146E180E156E6B
:10069000000E166E070EDBCF17F0186A196A1A6A79
:1006A00017C009F018C00AF019C00BF01AC00CF0FE
:1006B000D3D991EC0BF014500024F36E15500120A7
:1006C000F46E16500220F86EF4CFF7FFF3CFF6FF6A
:1006D0000800090EF5CFDBFF580EDF5C0FE1610E5D
:1006E000F36E090E7BD90AE3200E146E090EDBCFE0
:1006F000E7FF1450E75E090EE7CFDBFF070EDBCF05
:1007000014F0156A166A176A0FDA14C009F015C0DA
:100710000AF016C00BF017C00CF0EECF04F0EECFCD
:1007200005F0EECF06F0EFCF07F091EC0BF007C02D
:10073000EDFF06C0EDFF05C0EDFF04C0EFFF390E71
:10074000DBCFE9FFDB063A0EDBCFEAFF01E2DB0697
:10075000090EDBCFEFFF150EDB2A4BD995E1030E17
:10076000DBA61DD06F0EDF5C06E1C1D918E3150EC4
:10077000DB285BDA14D0780EDF5C09E0580EDF5C12
:1007800006E0620EDF5C03E0420EDF5C08E1020E71
:10079000F36E160EF3CFDBFF02D0150EDB6A030EED
:1007A000DB50100B0EE0040EDBCF14F0050EDB5017
:1007B000D880145406E2060EDB5003E1040EDB5031
:1007C00034DA95D90AE2050EDBCFE7FF150EDB50D0
:1007D000E75E050EE7CFDBFF02D0050EDB6A040EF5
:1007E000DBCF14F0160E45D9D880145414E2160E3F
:1007F000DBCFE6FF150EDBCFE6FF040EDBCFE6FF17
:10080000050EDB50E552E75CE552D880E754E5522F
:10081000D880E7545FD9030EDB50010B0BE1080EC3
:10082000DB5008E0B2D801E08DD0080EDB50BED816
:10083000080EDB6A170EDB5007E088D9170EF1D9D6
:1008400003E1151C01E17ED0160EDB5016E07ED9C7
:10085000300EE66E9FD802E1151C74E077D9DFCF29
:10086000E6FFB0EC0AF0E552E552E552F4CF15F0A0
:100870000001F31C02E1151C65E0050EDBCF14F04E
:10088000160EDB50D880145409E2050EDBCFE7FFCB
:10089000160EDB50E75E050EE7CFDBFF300EE66E8F
:1008A000050ECBD94FE1390EDB2ADBCFE9FF3A0E3B
:1008B00001E3DB2ADBCFEAFF090EEFCFDBFFDB50E2
:1008C0000EE044D9090EADD902E1151C3BE0390E0A
:1008D000DB2ADBCFE9FF3A0EEDE3DB2AEBD755D875
:1008E00031E1160EDBCFE6FF080EC3D8E552E72450
:1008F0005DD82ED0070EDB50030A1CE0010A14E07D
:10090000030A07E07BD9DBCFEEFF020EDBCFEDFF62
:100910001FD0F5D8196A17AE02D0186819682CD8FC
:10092000BCD819C0EEFF14D0EAD817BE186824D876
:10093000B4D80ED063D9DBCFEFFF0AD07BD905E165
:10094000151C03E1F368F46810D0FCD801E3DB2A3E
:1009500079D947EF00F0010EDBCF14F0020EDBCFA8
:1009600015F014C0F3FF15C0F4FF3B0EE15C02E28A
:10097000E16AE552E16ECBD029D9020EADEF05F068
:1009800061D90800F550DF6E1200200EE66E080EE9
:100990001DEF06F0B0EC0AF0E552E552E552F3CF58
:1009A00014F0F4CF15F00001F31C1200146E156A58
:1009B000D950010F4DD91450EE261550ED221200DA
:1009C000185E000E195AF70E18C0DBFFF80E19C09A
:1009D000DBFF18C0E9FF19C0EAFF1200DBCFF4FF0C
:1009E000F350F45C1200DB50E76E040EE7CFDBFF40
:1009F00012000A0EDBCF14F00B0EDBCF15F00C0E3D
:100A0000DBCF16F00D0EDBCF17F0145015101610BB
:100A100017101200130EEECFDBFF140EEDCFDBFF2D
:100A2000130EDBCF14F0140EDBCF15F00001800E97
:100A300015141200F70EDBCF18F0F80EDBCF19F00B
:100A40001200050EDB50E66ED950130F01D9E552A6
:100A5000E750EE6EED6A12000A0EDBCF04F00B0ECB
:100A6000DBCF05F00C0EDBCF06F00D0EDBCF07F071
:100A70001200DBCFE6FF150EDBCFE6FF050EDB50E5
:100A8000E552E724E552E7241200DB50CED8010EF0
:100A9000F36E060EF3CFDBFF1200EE50EFCFEAFF4E
:100AA000E96E16C0EEFF17C0EEFF18C0EEFF120091
:100AB000D9CFE6FFDACFE6FFE1CFD9FFE2CFDAFF09
:100AC0001200DFCFE6FFE66ACCEC0BF0E552E55210
:100AD000F3501200E76E080EE7CFDBFF1200EECFF7
:100AE00014F0EECF15F0EFCF16F0176A1200050ED6
:100AF000DBCF14F0150EDB50D88014541200010E19
:100B0000DBCF16F0020EDBCF17F0186A1200E552A9
:100B1000E5CFDAFFE7CFD9FF12000A0E14C0DBFFE2
:100B20000B0E15C0DBFF1200D9500A0F28EF06F09C
:100B3000F36E070EF3CFDBFF1200EECF14F0EFCF12
:100B400015F01200010EDB2A020E1200FC0EDBCFA4
:100B5000E6FFFD0EDBCFE6FF1200145E000E155A15
:100B6000F70E14C0DBFFF80E15C0DBFF14C0E9FF61
:100B700015C0EAFF1200DA20EA6EEF2AEECFF6FF88
:100B8000000EEF22EECFF7FFEF22EECFF8FF1200BC
:100B9000040EDBCFE6FF130EDB50E552E75C9ADF75
:100BA000DB5004DF060EDB501200090EDB500A0D8D
:100BB000F350DF24D00FE76E090EE7CFDBFFC0EF65
:100BC00004F0DB50F36E050EEEEF04F0F70EDBCF12
:100BD00014F0F80EDBCF15F01200DFCFE6FFCAEFFE
:100BE00004F028DF030EECDE6FEF05F01CEC00F0E4
:100BF000E552E552E552E55200091200BDDEEE5025
:100C0000EFCFEAFFE96E010E1200130EDB50F36E18
:100C1000040EEEEF04F0040EDB50F36E090EEEEF5F
:100C200004F0DBCFE6FFCAEF04F0E76E050EE7CF76
:100C3000DBFF12008BDFEDEF05F0DBCFE6FF86DF99
:100C4000F6EF05F0D950F90FE96EFF0EBBEF05F096
:0A0C5000E96E000EDA20EA6E1200D1
:060C5A000F9E08D00F9E62
:100C600007AE05D0066C071EE86A07220F8E07C084
:100C700001F006C000F0136A126A8E0E026E036A5B
:100C8000E4EF07F00F6A20EC08F038EC08F00FB63C
:100C9000C8EF07F00FA205D00FBAC8EF07F0CFEFEB
:100CA00007F00FBADBEF07F00FA005D00FB8C8EFC1
:100CB00007F0DBEF07F00FB8CFEF07F0036A7F0E06
:100CC0000824026EE86A03220D50025EE86A035AA5
:100CD0001A0E106E086A126A136A006A016A0A50D4
:100CE000055E0B50065A0C50075A000E085A09E7C9
:100CF0000A5005260B5006220C500722000E08222F
:100D000001D0128AD8900536063607360836D890B4
:100D10001236133600360136102EE1D70750061072
:100D20000510D8A4128AE4EF07F00F6A20EC08F04F
:100D300038EC08F00FB6C8EF07F00FA205D00FB8D7
:100D4000C8EF07F0CFEF07F00FAA05D00FB0C8EF3C
:100D500007F0CFEF07F00FB002D00FA802D0DBEF03
:100D600007F0036A0D500824026EE86A03227E0E23
:100D7000025EE86A035A126A136A006A016A0C503A
:100D80000702F4CF01F0F3CF00F00B500702F3504D
:100D90001326F4500022000E01220C500602F350DC
:100DA0001326F4500022000E01220A500702F350CD
:100DB0001226F4501322000E002201220B500602CC
:100DC000F3501226F4501322000E002201220C5080
:100DD0000502F3501226F4501322000E00220122C5
:100DE0000A500602F4501226000E1322002201229D
:100DF0000B500502F4501226000E1322002201228D
:100E0000E4EF07F00D7E0F6A20EC08F038EC08F0F4
:100E10000FB6C8EF07F00FA20AD00FAA03D00FBE7B
:100E2000C8EF07F00FA4D4EF07F0D1EF07F00FAA37
:100E300005D00FACD4EF07F0D1EF07F00FA00AD028
:100E40000FA808D00FBE04D00FA402D0DDEF07F02A
:100E5000E1EF07F0126A036A0D50085C116E10E3AF
:100E600005C013F006C000F007C001F008C010F084
:100E70000AC005F00BC006F00CC007F00F3A09D00D
:100E80000AC013F00BC000F00CC001F00DC010F050
:100E9000116C0F9E0FBC0F8E10C002F00FB010EF40
:100EA00008F01A0E116010EF08F0026A086A0FA429
:100EB00008D0056C061E071E081EE86A06220722D7
:100EC00008220FAC08D0136C001E011E021EE86A37
:100ED000002201220222046A115207E0083407327C
:100EE000063205320432112EF9D70550132606506A
:100EF0000022075001220850022204C012F00F9E67
:100F000002AE0BD0126C131E001E011E021EE86AF8
:100F100013220022012202220F8E02A006D0D880C6
:100F20000132003213321232102A10C002F0E4EF04
:100F300007F00F6A20EC08F00FB6A3EF07F00FA23E
:100F40000ED00FB405D07F0E076EFF0E066E1FD0B9
:100F5000800E076E066A1BD0076A066A18D00FB0AB
:100F6000FBD78F0E0860EDD77E0E0864F5D78E0E86
:100F7000085C05E0D89007320632082AF8D70FA49B
:100F800006D0066C071EE86A072207AEE5D71200F6
:100F90007F0E086EFF0E076E066E056E12007F0E46
:100FA0000FBEFF0E086E02D07F0E086E800E076E19
:100FB000066A056AF3D70FAE04D0800E086E076A82
:100FC000F7D7086A076AF4D70150001013101210FF
:100FD000F8E003BEF0D701BE0CD002500310EBE0E6
:100FE000D89012361336003601360206D8A0030612
:100FF000F2D70350D4E10228D2E012AE11D07F0E16
:10100000121402E113A00CD0132AE86A0022012274
:1010100007E3D880013200321332022A0228BFE0EF
:101020000250C9E013C005F000C006F00134076E9D
:101030000230086E0732089E0FBE088ECEEF07F012
:101040000736083602E30F840F7E06E10F80086A38
:10105000076A066A056A1200082803E0D88007328A
:101060001200D890073202E10F8212000F861200A0
:101070000C360D3602E30F8C0F7E06E10F880D6AE9
:101080000C6A0B6A0A6A12000D2803E0D8800C3241
:101090001200D8900C32EAE10F8A120007C013F058
:1010A00006C012F006500B02F4CF05F0F3CF04F0A7
:1010B00007500C02F4CF07F0F3CF06F00B02F35009
:1010C0000526F4500622E86A072212500C02F3505B
:1010D0000526F4500622E86A07220CAE74EF08F0E9
:1010E0001250065E1350075A13AE000C0B50065EEA
:0610F0000C50075A000C31
:0A10F600D9CFE6FFE1CFD9FF0B0EC2
:10110000E126956A9268190EE66EE66A3C0EE66E76
:101110006BEC0AF0E552E552E552C80EE66EB5EC0E
:101120000BF0E552C80EE66EB5EC0BF0E552C80EBA
:10113000E66EB5EC0BF0E552C80EE66EB5EC0BF0C2
:10114000E552C80EE66EB5EC0BF0E552C80EE66E41
:10115000B5EC0BF0E552C80EE66EB5EC0BF0E552BF
:10116000C80EE66EB5EC0BF0E552C80EE66EB5ECB7
:101170000BF0E552C80EE66EB5EC0BF0E552C80E6A
:10118000E66EB5EC0BF0E552C80EE66EB5EC0BF072
:10119000E5528368E66A040EE66EE90EE66E2AEC16
:1011A0000BF0E552E552E552C80EE66EB5EC0BF0D9
:1011B000E552C80EE66EB5EC0BF0E552C80EE66ED1
:1011C000B5EC0BF0E552C80EE66EB5EC0BF0E5524F
:1011D000C80EE66EB5EC0BF0E552C80EE66EB5EC47
:1011E0000BF0E55220EC0CF01BEC0CF0000901E0D8
:1011F000FBD7FAEC0BF0DE52F3CFDEFFF4CFDDFFCE
:10120000DD52010EDBCF06F0020EDBCF07F02FEC34
:1012100006F005C018F006C019F007C01AF008C0A3
:101220001BF00A6A0B6AA00E0C6E400E0D6E18C001
:1012300005F019C006F01AC007F01BC008F095ECC5
:1012400006F005C014F006C015F007C016F008C07F
:1012500017F00A6A0B6A800E0C6E450E0D6E14C0F4
:1012600005F015C006F016C007F017C008F042ECF4
:1012700006F0070E05C0DBFF080E06C0DBFF090EF7
:1012800007C0DBFF0A0E08C0DBFF070EDBCF05F04F
:10129000080EDBCF06F0090EDBCF07F00A0EDBCF1E
:1012A00008F099EC07F0030E06C0DBFF040E07C040
:1012B000DBFF070EDBCF18F0080EDBCF19F0090EAD
:1012C000DBCF1AF00A0EDBCF1BF0030EDBCF06F0EC
:1012D000040EDBCF07F02FEC06F005C01CF006C0B3
:1012E0001DF007C01EF008C01FF01CC00AF01DC092
:1012F0000BF01EC00CF01FC00DF018C005F019C097
:1013000006F01AC007F01BC008F002EC07F005C099
:1013100014F006C015F007C016F008C017F00A6AEE
:101320000B6A7A0E0C6E440E0D6E14C005F015C0DB
:1013300006F016C007F017C008F095EC06F099EC1F
:1013400007F0050E06C0DBFF060E07C0DBFF050E2B
:10135000DBCFE6FF060EDBCFE6FF030EDBCFE6FFBB
:10136000040EDBCFE6FF060E146E180E156E166A1D
:1013700014C0E6FF15C0E6FF16C0E6FF1FEC0AF03A
:10138000176E070EE15E17500FD7FFD70B0EE15C0B
:1013900002E2E16AE552E16EE552E7CFD9FF1200C1
:1013A0002A0EF66E000EF76E000EF86E00010900B0
:1013B000F550656F0900F550666F03E1656701D070
:1013C0003DD00900F550606F0900F550616F0900CC
:1013D000F550626F09000900F550E96E0900F550FB
:1013E000EA6E090009000900F550636F0900F55025
:1013F000646F09000900F6CF67F0F7CF68F0F8CF07
:1014000069F060C0F6FF61C0F7FF62C0F8FF00013D
:10141000635302E1645307E00900F550EE6E630781
:10142000F8E26407F9D767C0F6FF68C0F7FF69C044
:0E143000F8FF00016507000E665BBFD71200D3
:02143E00D9CF04
:10144000E6FFDACFE6FFE1CFD9FFE2CFDAFFE652DF
:10145000E652E652E652D950FB0F146EFF0EDA2028
:10146000156E14C0DEFFDD6EDECFE6FFDDCFE6FFDA
:10147000FB0EDBCFE6FFFC0EDBCFE6FFFD0EDBCF86
:10148000E6FF6AC0E6FF6BC0E6FF32EC00F0146EC8
:10149000070EE15C02E2E16AE552E16E1450020ED1
:1014A000F3CFDBFF030EF4CFDBFF020EDBCF14F034
:1014B000030EDBCF15F014C0F3FF15C0F4FF040ECC
:1014C000E15C02E2E16AE552E16EE552E5CFDAFF66
:0614D000E7CFD9FF120076
:0A14D600D9CFE6FFDACFE6FFE1CF41
:1014E000D9FFE2CFDAFFAC6AAB6AFD0EDBB0AC88A5
:1014F000DBA202D0AC8CAB8CDBB4AC8EDBA602D012
:10150000AB8801D0AB8ADBB8AC849E98DBBAAC86E2
:10151000DBAC02D09D8A01D09D9A9E9ADBAE02D0B0
:101520009D8801D09D98FB0EDB50AF6EFB0EFC0E2C
:10153000DBCF15F015C014F0156A1450B06EAC8AEC
:10154000AB8E949C948EAC50100B04E0AC50800B8E
:1015500001E1948CE552E5CFDAFFE7CFD9FF120025
:10156000D9CFE6FFDACFE6FFE1CFD9FFE2CFDAFF4E
:10157000FB0EDBCF14F0FC0EDBCF15F00001800E6C
:1015800015141AE1FB0EDBCFE9FFFC0EDBCFEAFFFF
:10159000EECFF3FFEDCFF4FFEE2A000EEF22F3CFF4
:1015A000E9FFF4CFEAFFFD0EDBCFEFFFEF50156A46
:1015B000F36E15C0F4FF10D0FB0EDB50FE0806E101
:1015C000FD0EDBCFE6FFECEC0BF005D0FD0EDBCF24
:1015D000E6FF22EC0CF0E552E552E5CFDAFFE7CF6B
:0415E000D9FF12001D
:0C15E40004500902F3CF00F0F4CF01F036
:1015F0000A02F3500126000EF420026E04500B0282
:10160000F3500226000EF420036E04500C02F35037
:10161000032605500902F3500126F4500222000E61
:10162000032205500A02F3500226F450032205500B
:101630000B02F350032606500902F3500226F45021
:10164000032206500A02F350032607500902F35002
:04165000032612005B
:0C165400D9CFE6FFDACFE6FFE1CFD9FFE7
:10166000E2CFDAFFC26AC16AC06AFC0EDB407F0BC0
:101670003C0BC26EFB0EDB50C16EFC0EDB38F00B78
:10168000300BC112FD0EDB50800BC06EFD0EDB383F
:101690000F0B070BC012FD0EDB50040DF350380B7F
:1016A000C012FC0EDBAE03D09E9C9D8CF28CC280DF
:0C16B000E552E5CFDAFFE7CFD9FF1200CA
:0416BC00FE0EE3CF6C
:1016C000E9FFFF0EE3CFEAFFF36AF46AEE5203E0AC
:1016D000F34AF42AFBD71200FF0EE3CFF8FFE552DE
:1016E000FF0EE3CFF7FFE552FF0EE3CFF6FFE55223
:1016F000E66AE66AE66A0900F55209E0FD0EE32AA9
:1017000005E1FE0EE32A02E1FF0EE32AF4D7FD0E07
:10171000E3CF05F0FE0EE3CF06F0FF0EE3CF07F0B8
:021720001200B5
:0E172200036A026A016A006A200EE76ED89020
:1017300004360536063607360036013602360336DD
:101740000950005C0A5001580B5002580C500358C5
:1017500009E30950005E0A50015A0B50025A0C501E
:0A176000035A042AE72EE4D7120012
:06176A00FF0EE350216EAA
:10177000EF0E01D0F30EE76EE72EBCEF0BF00C0E70
:10178000206EE76AE72EC2EF0BF0202EC1EF0BF0C0
:08179000212EBAEF0BF012004C
:08179800F36AF46AFF0EE1247C
:1017A000E96EFF0EE220EA6EED6607D02F0EEF64C1
:0C17B00004D03A0EEF6001D0F32A1200C2
:0417BC0013EE00F038
:1017C00023EE00F0F86A0F9CD0EC09F023EC0CF04B
:0817D0007BEC08F0FBD71200CE
:0817D800FF0EE350ACBA04D08F
:1017E000AF6AAB8EAC8A949CACA2FED7AD6EF36EA2
:0417F000F46A120085
:0C17F400C450176E166AC3501610F36E36
:0618000017C0F4FF120006
:0A180600414E30203D2025642E25C0
:0718100030336456200D0087
:09181700303132333435363738F4
:08182000396162636465660032
:0818280000EE00F00F0EEE6A65
:06183000EA62FDD7120080
:0A183600C250020B01E0010E120087
:04184000C28212004E
:02184400120090
:0218460012008E
:02184800FEFFA1
:020000040030CA
:0100000020DF
:010001000EF0
:0100020038C5
:010003001EDE
:0100050001F9
:010006008079
:010008000FE8
:01000900C036
:01000A000FE6
:01000B00E014
:01000C000FE4
:01000D0040B2
:00000001FF
